{
  "contractName": "EnigmaChain",
  "abi": [
    {
      "inputs": [],
      "stateMutability": "nonpayable",
      "type": "constructor"
    },
    {
      "anonymous": false,
      "inputs": [
        {
          "indexed": true,
          "internalType": "address",
          "name": "_from",
          "type": "address"
        },
        {
          "indexed": true,
          "internalType": "address",
          "name": "_to",
          "type": "address"
        },
        {
          "indexed": false,
          "internalType": "uint256",
          "name": "_value",
          "type": "uint256"
        }
      ],
      "name": "Transfer",
      "type": "event"
    },
    {
      "inputs": [],
      "name": "promoteAsVerifier",
      "outputs": [
        {
          "internalType": "bool",
          "name": "",
          "type": "bool"
        }
      ],
      "stateMutability": "nonpayable",
      "type": "function"
    },
    {
      "inputs": [
        {
          "internalType": "address",
          "name": "contributor",
          "type": "address"
        }
      ],
      "name": "addContrib",
      "outputs": [
        {
          "internalType": "bool",
          "name": "",
          "type": "bool"
        }
      ],
      "stateMutability": "nonpayable",
      "type": "function"
    },
    {
      "inputs": [],
      "name": "getsizeOfContributors",
      "outputs": [
        {
          "internalType": "uint256",
          "name": "",
          "type": "uint256"
        }
      ],
      "stateMutability": "view",
      "type": "function",
      "constant": true
    },
    {
      "inputs": [
        {
          "internalType": "address",
          "name": "verifier",
          "type": "address"
        }
      ],
      "name": "isVerifierExists",
      "outputs": [
        {
          "internalType": "bool",
          "name": "",
          "type": "bool"
        }
      ],
      "stateMutability": "view",
      "type": "function",
      "constant": true
    },
    {
      "inputs": [
        {
          "internalType": "address",
          "name": "receiver",
          "type": "address"
        },
        {
          "internalType": "uint256",
          "name": "amount",
          "type": "uint256"
        }
      ],
      "name": "sendCoin",
      "outputs": [
        {
          "internalType": "bool",
          "name": "sufficient",
          "type": "bool"
        }
      ],
      "stateMutability": "nonpayable",
      "type": "function"
    },
    {
      "inputs": [],
      "name": "getAllContributors",
      "outputs": [
        {
          "components": [
            {
              "internalType": "address",
              "name": "contributor",
              "type": "address"
            },
            {
              "internalType": "uint256",
              "name": "weight",
              "type": "uint256"
            }
          ],
          "internalType": "struct EnigmaChain.ContributorStruct[]",
          "name": "",
          "type": "tuple[]"
        }
      ],
      "stateMutability": "view",
      "type": "function",
      "constant": true
    },
    {
      "inputs": [
        {
          "internalType": "address",
          "name": "receiver",
          "type": "address"
        }
      ],
      "name": "sendViaCall",
      "outputs": [],
      "stateMutability": "payable",
      "type": "function",
      "payable": true
    },
    {
      "inputs": [
        {
          "internalType": "address",
          "name": "contributorAddress",
          "type": "address"
        }
      ],
      "name": "getWeightOfContributor",
      "outputs": [
        {
          "internalType": "uint256",
          "name": "weight",
          "type": "uint256"
        }
      ],
      "stateMutability": "view",
      "type": "function",
      "constant": true
    }
  ],
  "bytecode": "0x608060405234801561001057600080fd5b5032600260006101000a81548173ffffffffffffffffffffffffffffffffffffffff021916908373ffffffffffffffffffffffffffffffffffffffff16021790555060405180602001604052803273ffffffffffffffffffffffffffffffffffffffff1673ffffffffffffffffffffffffffffffffffffffff16815250600390600161009d9291906100a3565b5061014a565b82805482825590600052602060002090810192821561011c579160200282015b8281111561011b5782518260006101000a81548173ffffffffffffffffffffffffffffffffffffffff021916908373ffffffffffffffffffffffffffffffffffffffff160217905550916020019190600101906100c3565b5b509050610129919061012d565b5090565b5b8082111561014657600081600090555060010161012e565b5090565b610ebb806101596000396000f3fe60806040526004361061007b5760003560e01c80638ed525171161004e5780638ed525171461014157806390b98a111461016c578063ae2a4270146101a9578063b7888443146101d45761007b565b806322ee0ebe146100805780634fe604ab146100bd57806351f890ea146100fa578063830c29ae14610125575b600080fd5b34801561008c57600080fd5b506100a760048036038101906100a29190610a71565b610211565b6040516100b49190610ab9565b60405180910390f35b3480156100c957600080fd5b506100e460048036038101906100df9190610a71565b610485565b6040516100f19190610ab9565b60405180910390f35b34801561010657600080fd5b5061010f610533565b60405161011c9190610bda565b60405180910390f35b61013f600480360381019061013a9190610a71565b6105f2565b005b34801561014d57600080fd5b506101566106a5565b6040516101639190610ab9565b60405180910390f35b34801561017857600080fd5b50610193600480360381019061018e9190610c28565b61075d565b6040516101a09190610ab9565b60405180910390f35b3480156101b557600080fd5b506101be6108cb565b6040516101cb9190610c77565b60405180910390f35b3480156101e057600080fd5b506101fb60048036038101906101f69190610a71565b6108d4565b6040516102089190610c77565b60405180910390f35b600080600090505b60038054905081101561047a573273ffffffffffffffffffffffffffffffffffffffff166003828154811061025157610250610c92565b5b9060005260206000200160009054906101000a900473ffffffffffffffffffffffffffffffffffffffff1673ffffffffffffffffffffffffffffffffffffffff1603610467576000805b600580549050811015610373578473ffffffffffffffffffffffffffffffffffffffff16600582815481106102d3576102d2610c92565b5b906000526020600020906002020160000160009054906101000a900473ffffffffffffffffffffffffffffffffffffffff1673ffffffffffffffffffffffffffffffffffffffff1603610360576005818154811061033457610333610c92565b5b9060005260206000209060020201600101600081548092919061035690610cf0565b9190505550600191505b808061036b90610cf0565b91505061029b565b5080610445576103816109de565b84816000019073ffffffffffffffffffffffffffffffffffffffff16908173ffffffffffffffffffffffffffffffffffffffff16815250506001816020018181525050600581908060018154018082558091505060019003906000526020600020906002020160009091909190915060008201518160000160006101000a81548173ffffffffffffffffffffffffffffffffffffffff021916908373ffffffffffffffffffffffffffffffffffffffff160217905550602082015181600101555050505b60008081548092919061045790610cf0565b9190505550600192505050610480565b808061047290610cf0565b915050610219565b50600090505b919050565b600080600090505b600380549050811015610528578273ffffffffffffffffffffffffffffffffffffffff16600382815481106104c5576104c4610c92565b5b9060005260206000200160009054906101000a900473ffffffffffffffffffffffffffffffffffffffff1673ffffffffffffffffffffffffffffffffffffffff160361051557600191505061052e565b808061052090610cf0565b91505061048d565b50600090505b919050565b60606005805480602002602001604051908101604052809291908181526020016000905b828210156105e957838290600052602060002090600202016040518060400160405290816000820160009054906101000a900473ffffffffffffffffffffffffffffffffffffffff1673ffffffffffffffffffffffffffffffffffffffff1673ffffffffffffffffffffffffffffffffffffffff16815260200160018201548152505081526020019060010190610557565b50505050905090565b6000808273ffffffffffffffffffffffffffffffffffffffff163460405161061990610d69565b60006040518083038185875af1925050503d8060008114610656576040519150601f19603f3d011682016040523d82523d6000602084013e61065b565b606091505b5091509150816106a0576040517f08c379a000000000000000000000000000000000000000000000000000000000815260040161069790610ddb565b60405180910390fd5b505050565b60003273ffffffffffffffffffffffffffffffffffffffff163373ffffffffffffffffffffffffffffffffffffffff1603610755576106e333610485565b15610754576003339080600181540180825580915050600190039060005260206000200160009091909190916101000a81548173ffffffffffffffffffffffffffffffffffffffff021916908373ffffffffffffffffffffffffffffffffffffffff1602179055506001905061075a565b5b600090505b90565b600081600160003373ffffffffffffffffffffffffffffffffffffffff1673ffffffffffffffffffffffffffffffffffffffff1681526020019081526020016000205410156107af57600090506108c5565b81600160003373ffffffffffffffffffffffffffffffffffffffff1673ffffffffffffffffffffffffffffffffffffffff16815260200190815260200160002060008282546107fe9190610dfb565b9250508190555081600160008573ffffffffffffffffffffffffffffffffffffffff1673ffffffffffffffffffffffffffffffffffffffff16815260200190815260200160002060008282546108549190610e2f565b925050819055508273ffffffffffffffffffffffffffffffffffffffff163373ffffffffffffffffffffffffffffffffffffffff167fddf252ad1be2c89b69c2b068fc378daa952ba7f163c4a11628f55a4df523b3ef846040516108b89190610c77565b60405180910390a3600190505b92915050565b60008054905090565b600080600090505b6005805490508110156109d3576000600582815481106108ff576108fe610c92565b5b90600052602060002090600202016040518060400160405290816000820160009054906101000a900473ffffffffffffffffffffffffffffffffffffffff1673ffffffffffffffffffffffffffffffffffffffff1673ffffffffffffffffffffffffffffffffffffffff16815260200160018201548152505090508373ffffffffffffffffffffffffffffffffffffffff16816000015173ffffffffffffffffffffffffffffffffffffffff16036109bf578060200151925050506109d9565b5080806109cb90610cf0565b9150506108dc565b50600090505b919050565b6040518060400160405280600073ffffffffffffffffffffffffffffffffffffffff168152602001600081525090565b600080fd5b600073ffffffffffffffffffffffffffffffffffffffff82169050919050565b6000610a3e82610a13565b9050919050565b610a4e81610a33565b8114610a5957600080fd5b50565b600081359050610a6b81610a45565b92915050565b600060208284031215610a8757610a86610a0e565b5b6000610a9584828501610a5c565b91505092915050565b60008115159050919050565b610ab381610a9e565b82525050565b6000602082019050610ace6000830184610aaa565b92915050565b600081519050919050565b600082825260208201905092915050565b6000819050602082019050919050565b610b0981610a33565b82525050565b6000819050919050565b610b2281610b0f565b82525050565b604082016000820151610b3e6000850182610b00565b506020820151610b516020850182610b19565b50505050565b6000610b638383610b28565b60408301905092915050565b6000602082019050919050565b6000610b8782610ad4565b610b918185610adf565b9350610b9c83610af0565b8060005b83811015610bcd578151610bb48882610b57565b9750610bbf83610b6f565b925050600181019050610ba0565b5085935050505092915050565b60006020820190508181036000830152610bf48184610b7c565b905092915050565b610c0581610b0f565b8114610c1057600080fd5b50565b600081359050610c2281610bfc565b92915050565b60008060408385031215610c3f57610c3e610a0e565b5b6000610c4d85828601610a5c565b9250506020610c5e85828601610c13565b9150509250929050565b610c7181610b0f565b82525050565b6000602082019050610c8c6000830184610c68565b92915050565b7f4e487b7100000000000000000000000000000000000000000000000000000000600052603260045260246000fd5b7f4e487b7100000000000000000000000000000000000000000000000000000000600052601160045260246000fd5b6000610cfb82610b0f565b91507fffffffffffffffffffffffffffffffffffffffffffffffffffffffffffffffff8203610d2d57610d2c610cc1565b5b600182019050919050565b600081905092915050565b50565b6000610d53600083610d38565b9150610d5e82610d43565b600082019050919050565b6000610d7482610d46565b9150819050919050565b600082825260208201905092915050565b7f4661696c656420746f2073656e64204574686572000000000000000000000000600082015250565b6000610dc5601483610d7e565b9150610dd082610d8f565b602082019050919050565b60006020820190508181036000830152610df481610db8565b9050919050565b6000610e0682610b0f565b9150610e1183610b0f565b925082821015610e2457610e23610cc1565b5b828203905092915050565b6000610e3a82610b0f565b9150610e4583610b0f565b9250827fffffffffffffffffffffffffffffffffffffffffffffffffffffffffffffffff03821115610e7a57610e79610cc1565b5b82820190509291505056fea2646970667358221220d6ef57a0b935e7527061331aae65a6433ff616635cdbed6f0ac9100b596541d264736f6c634300080d0033",
  "immutableReferences": {},
  "source": "// SPDX-License-Identifier: MIT\n// Tells the Solidity compiler to compile only from v0.8.13 to v0.9.0\npragma solidity ^0.8.13;\n\n// This is just a simple example of a coin-like contract.\n// It is not ERC20 compatible and cannot be expected to talk to other\n// coin/token contracts.\n\ncontract EnigmaChain {\n    struct ContributorStruct {\n        address contributor;\n        uint256 weight;\n        //address[] contributors;\n        //mapping(address => uint256) myMappingInStruct;\n    }\n\n    uint256 sizeOfContributors;\n\n    mapping(address => uint256) contributors;\n    address owner;\n    address[] verifiers;\n\n    uint256 addressRegistryCount;\n\n    ContributorStruct[] AllContributors;\n\n    event Transfer(address indexed _from, address indexed _to, uint256 _value);\n\n    constructor() {\n        owner = tx.origin;\n        verifiers = [tx.origin];\n    }\n\n    function promoteAsVerifier() public returns (bool) {\n        //If tx sender is owner\n        // Add value to verifiers\n        if (msg.sender == tx.origin) {\n            if (isVerifierExists(msg.sender)) {\n                verifiers.push(msg.sender);\n                return true;\n            }\n        }\n        return false;\n    }\n\n    function addContrib(address contributor) public returns (bool) {\n        // Adding contributor if transaction is coming from origin\n        for (uint256 i = 0; i < verifiers.length; i++) {\n            if (verifiers[i] == tx.origin) {\n                bool found = false;\n                for(uint256 j=0; j<AllContributors.length; j++){\n                    if(AllContributors[j].contributor==contributor) {\n                        AllContributors[j].weight++;\n                        found = true;\n                    }\n                }\n                if(!found) {\n                    ContributorStruct memory newcontrib;\n                    newcontrib.contributor = contributor;\n                    newcontrib.weight = 1;\n                    AllContributors.push(newcontrib);\n                }\n                sizeOfContributors++;\n\n                return true;\n            }\n        }\n        return false;\n    }\n\n    function getsizeOfContributors() public view returns(uint256) {\n        return sizeOfContributors;\n    }\n\n    function isVerifierExists(address verifier) public view returns (bool) {\n        for (uint256 i = 0; i < verifiers.length; i++) {\n            if (verifiers[i] == verifier) {\n                return true;\n            }\n        }\n\n        return false;\n    }\n\n    function sendCoin(address receiver, uint256 amount)\n        public\n        returns (bool sufficient)\n    {\n        if (contributors[msg.sender] < amount) return false;\n        contributors[msg.sender] -= amount;\n        contributors[receiver] += amount;\n        emit Transfer(msg.sender, receiver, amount);\n        return true;\n    }\n\n    function getAllContributors()\n        public\n        view\n        returns (ContributorStruct[] memory)\n    {\n        return AllContributors;\n    }\n\n    function sendViaCall(address receiver) public payable {\n        //uint value = contributors[receiver];\n\n        (bool sent, bytes memory data) = receiver.call{value: msg.value}(\"\");\n        require(sent, \"Failed to send Ether\");\n    }\n\n    function getWeightOfContributor(address contributorAddress)\n        public\n        view\n        returns (uint256 weight)\n    {\n        //Getting contributors weight from the array of struct\n        for (uint256 i = 0; i < AllContributors.length; i++) {\n            ContributorStruct memory contributorObject = AllContributors[i];\n            if (contributorObject.contributor == contributorAddress) {\n                return contributorObject.weight;\n            }\n        }\n        return 0;\n    }\n}\n",
  "sourcePath": "/home/amardhruva/Project/buffalo/ubhacking/ubh-fall2022-repotemplate-ankithbala/enigmatic-contracts/contracts/EnigmaChain.sol",
  "compiler": {
    "name": "solc",
    "version": "0.8.13+commit.abaa5c0e.Emscripten.clang"
  },
  "schemaVersion": "3.4.10",
  "updatedAt": "2022-11-06T04:32:57.549Z",
  "networkType": "ethereum",
  "devdoc": {
    "kind": "dev",
    "methods": {},
    "version": 1
  },
  "userdoc": {
    "kind": "user",
    "methods": {},
    "version": 1
  }
}