{
  "contractName": "EnigmaChain",
  "abi": [
    {
      "inputs": [],
      "stateMutability": "nonpayable",
      "type": "constructor"
    },
    {
      "anonymous": false,
      "inputs": [
        {
          "indexed": true,
          "internalType": "address",
          "name": "_from",
          "type": "address"
        },
        {
          "indexed": true,
          "internalType": "address",
          "name": "_to",
          "type": "address"
        },
        {
          "indexed": false,
          "internalType": "uint256",
          "name": "_value",
          "type": "uint256"
        }
      ],
      "name": "Transfer",
      "type": "event"
    },
    {
      "inputs": [
        {
          "internalType": "address",
          "name": "contributor",
          "type": "address"
        }
      ],
      "name": "addContrib",
      "outputs": [
        {
          "internalType": "bool",
          "name": "",
          "type": "bool"
        }
      ],
      "stateMutability": "nonpayable",
      "type": "function"
    },
    {
      "inputs": [
        {
          "internalType": "address",
          "name": "receiver",
          "type": "address"
        },
        {
          "internalType": "uint256",
          "name": "amount",
          "type": "uint256"
        }
      ],
      "name": "sendCoin",
      "outputs": [
        {
          "internalType": "bool",
          "name": "sufficient",
          "type": "bool"
        }
      ],
      "stateMutability": "nonpayable",
      "type": "function"
    },
    {
      "inputs": [],
      "name": "getAllContributors",
      "outputs": [
        {
          "components": [
            {
              "internalType": "address",
              "name": "contributor",
              "type": "address"
            },
            {
              "internalType": "uint256",
              "name": "weight",
              "type": "uint256"
            }
          ],
          "internalType": "struct EnigmaChain.ContributorStruct[]",
          "name": "",
          "type": "tuple[]"
        }
      ],
      "stateMutability": "view",
      "type": "function",
      "constant": true
    },
    {
      "inputs": [
        {
          "internalType": "address",
          "name": "receiver",
          "type": "address"
        }
      ],
      "name": "sendViaCall",
      "outputs": [],
      "stateMutability": "payable",
      "type": "function",
      "payable": true
    },
    {
      "inputs": [
        {
          "internalType": "address",
          "name": "addr",
          "type": "address"
        }
      ],
      "name": "getBalance",
      "outputs": [
        {
          "internalType": "uint256",
          "name": "",
          "type": "uint256"
        }
      ],
      "stateMutability": "view",
      "type": "function",
      "constant": true
    }
  ],
  "bytecode": "0x608060405234801561001057600080fd5b5032600260006101000a81548173ffffffffffffffffffffffffffffffffffffffff021916908373ffffffffffffffffffffffffffffffffffffffff16021790555060405180602001604052803273ffffffffffffffffffffffffffffffffffffffff1673ffffffffffffffffffffffffffffffffffffffff16815250600390600161009d9291906100a3565b5061014a565b82805482825590600052602060002090810192821561011c579160200282015b8281111561011b5782518260006101000a81548173ffffffffffffffffffffffffffffffffffffffff021916908373ffffffffffffffffffffffffffffffffffffffff160217905550916020019190600101906100c3565b5b509050610129919061012d565b5090565b5b8082111561014657600081600090555060010161012e565b5090565b610b35806101596000396000f3fe60806040526004361061004a5760003560e01c806322ee0ebe1461004f57806351f890ea1461008c578063830c29ae146100b757806390b98a11146100d3578063f8b2cb4f14610110575b600080fd5b34801561005b57600080fd5b50610076600480360381019061007191906106eb565b61014d565b6040516100839190610733565b60405180910390f35b34801561009857600080fd5b506100a161035f565b6040516100ae9190610854565b60405180910390f35b6100d160048036038101906100cc91906106eb565b61041e565b005b3480156100df57600080fd5b506100fa60048036038101906100f591906108a2565b6104d1565b6040516101079190610733565b60405180910390f35b34801561011c57600080fd5b50610137600480360381019061013291906106eb565b61063f565b60405161014491906108f1565b60405180910390f35b600080600090505b600380549050811015610354573273ffffffffffffffffffffffffffffffffffffffff166003828154811061018d5761018c61090c565b5b9060005260206000200160009054906101000a900473ffffffffffffffffffffffffffffffffffffffff1673ffffffffffffffffffffffffffffffffffffffff16036103415760018060008573ffffffffffffffffffffffffffffffffffffffff1673ffffffffffffffffffffffffffffffffffffffff1681526020019081526020016000206000828254610222919061096a565b9250508190555060018060003273ffffffffffffffffffffffffffffffffffffffff1673ffffffffffffffffffffffffffffffffffffffff1681526020019081526020016000206000828254610278919061096a565b9250508190555082600582815481106102945761029361090c565b5b906000526020600020906002020160000160006101000a81548173ffffffffffffffffffffffffffffffffffffffff021916908373ffffffffffffffffffffffffffffffffffffffff1602179055506001600582815481106102f9576102f861090c565b5b90600052602060002090600202016001016000828254610319919061096a565b92505081905550600080815480929190610332906109c0565b9190505550600191505061035a565b808061034c906109c0565b915050610155565b50600090505b919050565b60606005805480602002602001604051908101604052809291908181526020016000905b8282101561041557838290600052602060002090600202016040518060400160405290816000820160009054906101000a900473ffffffffffffffffffffffffffffffffffffffff1673ffffffffffffffffffffffffffffffffffffffff1673ffffffffffffffffffffffffffffffffffffffff16815260200160018201548152505081526020019060010190610383565b50505050905090565b6000808273ffffffffffffffffffffffffffffffffffffffff163460405161044590610a39565b60006040518083038185875af1925050503d8060008114610482576040519150601f19603f3d011682016040523d82523d6000602084013e610487565b606091505b5091509150816104cc576040517f08c379a00000000000000000000000000000000000000000000000000000000081526004016104c390610aab565b60405180910390fd5b505050565b600081600160003373ffffffffffffffffffffffffffffffffffffffff1673ffffffffffffffffffffffffffffffffffffffff1681526020019081526020016000205410156105235760009050610639565b81600160003373ffffffffffffffffffffffffffffffffffffffff1673ffffffffffffffffffffffffffffffffffffffff16815260200190815260200160002060008282546105729190610acb565b9250508190555081600160008573ffffffffffffffffffffffffffffffffffffffff1673ffffffffffffffffffffffffffffffffffffffff16815260200190815260200160002060008282546105c8919061096a565b925050819055508273ffffffffffffffffffffffffffffffffffffffff163373ffffffffffffffffffffffffffffffffffffffff167fddf252ad1be2c89b69c2b068fc378daa952ba7f163c4a11628f55a4df523b3ef8460405161062c91906108f1565b60405180910390a3600190505b92915050565b6000600160008373ffffffffffffffffffffffffffffffffffffffff1673ffffffffffffffffffffffffffffffffffffffff168152602001908152602001600020549050919050565b600080fd5b600073ffffffffffffffffffffffffffffffffffffffff82169050919050565b60006106b88261068d565b9050919050565b6106c8816106ad565b81146106d357600080fd5b50565b6000813590506106e5816106bf565b92915050565b60006020828403121561070157610700610688565b5b600061070f848285016106d6565b91505092915050565b60008115159050919050565b61072d81610718565b82525050565b60006020820190506107486000830184610724565b92915050565b600081519050919050565b600082825260208201905092915050565b6000819050602082019050919050565b610783816106ad565b82525050565b6000819050919050565b61079c81610789565b82525050565b6040820160008201516107b8600085018261077a565b5060208201516107cb6020850182610793565b50505050565b60006107dd83836107a2565b60408301905092915050565b6000602082019050919050565b60006108018261074e565b61080b8185610759565b93506108168361076a565b8060005b8381101561084757815161082e88826107d1565b9750610839836107e9565b92505060018101905061081a565b5085935050505092915050565b6000602082019050818103600083015261086e81846107f6565b905092915050565b61087f81610789565b811461088a57600080fd5b50565b60008135905061089c81610876565b92915050565b600080604083850312156108b9576108b8610688565b5b60006108c7858286016106d6565b92505060206108d88582860161088d565b9150509250929050565b6108eb81610789565b82525050565b600060208201905061090660008301846108e2565b92915050565b7f4e487b7100000000000000000000000000000000000000000000000000000000600052603260045260246000fd5b7f4e487b7100000000000000000000000000000000000000000000000000000000600052601160045260246000fd5b600061097582610789565b915061098083610789565b9250827fffffffffffffffffffffffffffffffffffffffffffffffffffffffffffffffff038211156109b5576109b461093b565b5b828201905092915050565b60006109cb82610789565b91507fffffffffffffffffffffffffffffffffffffffffffffffffffffffffffffffff82036109fd576109fc61093b565b5b600182019050919050565b600081905092915050565b50565b6000610a23600083610a08565b9150610a2e82610a13565b600082019050919050565b6000610a4482610a16565b9150819050919050565b600082825260208201905092915050565b7f4661696c656420746f2073656e64204574686572000000000000000000000000600082015250565b6000610a95601483610a4e565b9150610aa082610a5f565b602082019050919050565b60006020820190508181036000830152610ac481610a88565b9050919050565b6000610ad682610789565b9150610ae183610789565b925082821015610af457610af361093b565b5b82820390509291505056fea26469706673582212204a7a1733397e581f4081a5e2903d03768e54c85809622e166d73c2a4054364f164736f6c634300080d0033",
  "immutableReferences": {},
  "source": "// SPDX-License-Identifier: MIT\n// Tells the Solidity compiler to compile only from v0.8.13 to v0.9.0\npragma solidity ^0.8.13;\n\n\n// This is just a simple example of a coin-like contract.\n// It is not ERC20 compatible and cannot be expected to talk to other\n// coin/token contracts.\n\ncontract EnigmaChain {\n    struct ContributorStruct {\n        address contributor;\n        uint256 weight;\n        //address[] contributors;\n        //mapping(address => uint256) myMappingInStruct;\n\n    }\n\n    uint sizeOfContributors;\n\n    mapping(address => uint256) contributors;\n    address owner;\n    address[] verifiers;\n\n    uint addressRegistryCount;   \n\n    ContributorStruct[] AllContributors;\n    \n\n    event Transfer(address indexed _from, address indexed _to, uint256 _value);\n\n    constructor() {\n        owner = tx.origin;\n        verifiers = [tx.origin];\n        \n    }\n    /*\n    function make() {\n        //If tx sender is owner\n        // Add value to verifiers\n    }\n    */\n\n\n    function addContrib(address contributor) public returns (bool) {\n        for (uint256 i = 0; i < verifiers.length; i++) {\n            if (verifiers[i] == tx.origin) {\n                contributors[contributor] += 1;\n                contributors[tx.origin] += 1;\n\n                \n                AllContributors[i].contributor = contributor;\n                AllContributors[i].weight +=1;\n                sizeOfContributors++;\n\n                return true;\n            }\n        }\n        return false;\n    }\n\n    function sendCoin(address receiver, uint256 amount)\n        public\n        returns (bool sufficient)\n    {\n        if (contributors[msg.sender] < amount) return false;\n        contributors[msg.sender] -= amount;\n        contributors[receiver] += amount;\n        emit Transfer(msg.sender, receiver, amount);\n        return true;\n    }\n/*\n function getAll() public view returns (address[] memory){\n    address[] memory ret = new address[](addressRegistryCount);\n    for (uint i = 0; i < addressRegistryCount; i++) {\n        ret[i] = contributors;\n    }\n    return ret;\n}\n*/\n\n    function getAllContributors() public view returns (ContributorStruct[] memory) {\n    return AllContributors;\n    }\n\n    function sendViaCall(address receiver) public payable {\n\n        //uint value = contributors[receiver];\n        \n        (bool sent, bytes memory data) = receiver.call{value: msg.value}(\"\");\n        require(sent, \"Failed to send Ether\");\n    }\n\n    function getBalance(address addr) public view returns (uint256) {\n        return contributors[addr];\n    }\n}",
  "sourcePath": "/home/ankith/project/ubhacking/enigma/ubh-fall2022-repotemplate-ankithbala/enigmatic-contracts/contracts/EnigmaChain.sol",
  "compiler": {
    "name": "solc",
    "version": "0.8.13+commit.abaa5c0e.Emscripten.clang"
  },
  "schemaVersion": "3.4.10",
  "updatedAt": "2022-11-05T22:49:15.404Z",
  "networkType": "ethereum",
  "devdoc": {
    "kind": "dev",
    "methods": {},
    "version": 1
  },
  "userdoc": {
    "kind": "user",
    "methods": {},
    "version": 1
  }
}