{
  "contractName": "EnigmaChain",
  "abi": [
    {
      "inputs": [],
      "stateMutability": "nonpayable",
      "type": "constructor"
    },
    {
      "anonymous": false,
      "inputs": [
        {
          "indexed": true,
          "internalType": "address",
          "name": "_from",
          "type": "address"
        },
        {
          "indexed": true,
          "internalType": "address",
          "name": "_to",
          "type": "address"
        },
        {
          "indexed": false,
          "internalType": "uint256",
          "name": "_value",
          "type": "uint256"
        }
      ],
      "name": "Transfer",
      "type": "event"
    },
    {
      "inputs": [
        {
          "internalType": "address",
          "name": "contributor",
          "type": "address"
        }
      ],
      "name": "addContrib",
      "outputs": [
        {
          "internalType": "bool",
          "name": "",
          "type": "bool"
        }
      ],
      "stateMutability": "nonpayable",
      "type": "function"
    },
    {
      "inputs": [
        {
          "internalType": "address",
          "name": "receiver",
          "type": "address"
        },
        {
          "internalType": "uint256",
          "name": "amount",
          "type": "uint256"
        }
      ],
      "name": "sendCoin",
      "outputs": [
        {
          "internalType": "bool",
          "name": "sufficient",
          "type": "bool"
        }
      ],
      "stateMutability": "nonpayable",
      "type": "function"
    },
    {
      "inputs": [
        {
          "internalType": "address",
          "name": "addr",
          "type": "address"
        }
      ],
      "name": "getBalance",
      "outputs": [
        {
          "internalType": "uint256",
          "name": "",
          "type": "uint256"
        }
      ],
      "stateMutability": "view",
      "type": "function",
      "constant": true
    }
  ],
  "bytecode": "0x608060405234801561001057600080fd5b5032600160006101000a81548173ffffffffffffffffffffffffffffffffffffffff021916908373ffffffffffffffffffffffffffffffffffffffff16021790555060405180602001604052803273ffffffffffffffffffffffffffffffffffffffff1673ffffffffffffffffffffffffffffffffffffffff16815250600290600161009d9291906100a3565b5061014a565b82805482825590600052602060002090810192821561011c579160200282015b8281111561011b5782518260006101000a81548173ffffffffffffffffffffffffffffffffffffffff021916908373ffffffffffffffffffffffffffffffffffffffff160217905550916020019190600101906100c3565b5b509050610129919061012d565b5090565b5b8082111561014657600081600090555060010161012e565b5090565b6106af806101596000396000f3fe608060405234801561001057600080fd5b50600436106100415760003560e01c806322ee0ebe1461004657806390b98a1114610076578063f8b2cb4f146100a6575b600080fd5b610060600480360381019061005b9190610446565b6100d6565b60405161006d919061048e565b60405180910390f35b610090600480360381019061008b91906104df565b610230565b60405161009d919061048e565b60405180910390f35b6100c060048036038101906100bb9190610446565b61039b565b6040516100cd919061052e565b60405180910390f35b600080600090505b600280549050811015610225573273ffffffffffffffffffffffffffffffffffffffff166002828154811061011657610115610549565b5b9060005260206000200160009054906101000a900473ffffffffffffffffffffffffffffffffffffffff1673ffffffffffffffffffffffffffffffffffffffff16036102125760016000808573ffffffffffffffffffffffffffffffffffffffff1673ffffffffffffffffffffffffffffffffffffffff16815260200190815260200160002060008282546101ab91906105a7565b9250508190555060016000803273ffffffffffffffffffffffffffffffffffffffff1673ffffffffffffffffffffffffffffffffffffffff168152602001908152602001600020600082825461020191906105a7565b92505081905550600191505061022b565b808061021d906105fd565b9150506100de565b50600090505b919050565b6000816000803373ffffffffffffffffffffffffffffffffffffffff1673ffffffffffffffffffffffffffffffffffffffff1681526020019081526020016000205410156102815760009050610395565b816000803373ffffffffffffffffffffffffffffffffffffffff1673ffffffffffffffffffffffffffffffffffffffff16815260200190815260200160002060008282546102cf9190610645565b92505081905550816000808573ffffffffffffffffffffffffffffffffffffffff1673ffffffffffffffffffffffffffffffffffffffff168152602001908152602001600020600082825461032491906105a7565b925050819055508273ffffffffffffffffffffffffffffffffffffffff163373ffffffffffffffffffffffffffffffffffffffff167fddf252ad1be2c89b69c2b068fc378daa952ba7f163c4a11628f55a4df523b3ef84604051610388919061052e565b60405180910390a3600190505b92915050565b60008060008373ffffffffffffffffffffffffffffffffffffffff1673ffffffffffffffffffffffffffffffffffffffff168152602001908152602001600020549050919050565b600080fd5b600073ffffffffffffffffffffffffffffffffffffffff82169050919050565b6000610413826103e8565b9050919050565b61042381610408565b811461042e57600080fd5b50565b6000813590506104408161041a565b92915050565b60006020828403121561045c5761045b6103e3565b5b600061046a84828501610431565b91505092915050565b60008115159050919050565b61048881610473565b82525050565b60006020820190506104a3600083018461047f565b92915050565b6000819050919050565b6104bc816104a9565b81146104c757600080fd5b50565b6000813590506104d9816104b3565b92915050565b600080604083850312156104f6576104f56103e3565b5b600061050485828601610431565b9250506020610515858286016104ca565b9150509250929050565b610528816104a9565b82525050565b6000602082019050610543600083018461051f565b92915050565b7f4e487b7100000000000000000000000000000000000000000000000000000000600052603260045260246000fd5b7f4e487b7100000000000000000000000000000000000000000000000000000000600052601160045260246000fd5b60006105b2826104a9565b91506105bd836104a9565b9250827fffffffffffffffffffffffffffffffffffffffffffffffffffffffffffffffff038211156105f2576105f1610578565b5b828201905092915050565b6000610608826104a9565b91507fffffffffffffffffffffffffffffffffffffffffffffffffffffffffffffffff820361063a57610639610578565b5b600182019050919050565b6000610650826104a9565b915061065b836104a9565b92508282101561066e5761066d610578565b5b82820390509291505056fea2646970667358221220872a43c4eb8d7ec69999a14e14595dbc1daa9fa80c6f007edbce570f2a26a9ce64736f6c634300080d0033",
  "immutableReferences": {},
  "source": "// SPDX-License-Identifier: MIT\n// Tells the Solidity compiler to compile only from v0.8.13 to v0.9.0\npragma solidity ^0.8.13;\n\n\n// This is just a simple example of a coin-like contract.\n// It is not ERC20 compatible and cannot be expected to talk to other\n// coin/token contracts.\n\ncontract EnigmaChain {\n    mapping(address => uint256) contributors;\n    address owner;\n    address[] verrifiers;\n\n    event Transfer(address indexed _from, address indexed _to, uint256 _value);\n\n    constructor() {\n        owner = tx.origin;\n        verrifiers = [tx.origin];\n    }\n\n    function addContrib(address contributor) public returns (bool) {\n        for (uint256 i = 0; i < verrifiers.length; i++) {\n            if (verrifiers[i] == tx.origin) {\n                contributors[contributor] += 1;\n                contributors[tx.origin] += 1;\n                return true;\n            }\n        }\n        return false;\n    }\n\n    function sendCoin(address receiver, uint256 amount)\n        public\n        returns (bool sufficient)\n    {\n        if (contributors[msg.sender] < amount) return false;\n        contributors[msg.sender] -= amount;\n        contributors[receiver] += amount;\n        emit Transfer(msg.sender, receiver, amount);\n        return true;\n    }\n\n    function getBalance(address addr) public view returns (uint256) {\n        return contributors[addr];\n    }\n}",
  "sourcePath": "/home/ankith/project/ubhacking/enigma/ubh-fall2022-repotemplate-ankithbala/enigmatic-contracts/contracts/EnigmaChain.sol",
  "compiler": {
    "name": "solc",
    "version": "0.8.13+commit.abaa5c0e.Emscripten.clang"
  },
  "schemaVersion": "3.4.10",
  "updatedAt": "2022-11-05T19:42:16.082Z",
  "networkType": "ethereum",
  "devdoc": {
    "kind": "dev",
    "methods": {},
    "version": 1
  },
  "userdoc": {
    "kind": "user",
    "methods": {},
    "version": 1
  }
}