{
  "contractName": "MetaCoin",
  "abi": [
    {
      "inputs": [],
      "stateMutability": "nonpayable",
      "type": "constructor"
    },
    {
      "anonymous": false,
      "inputs": [
        {
          "indexed": true,
          "internalType": "address",
          "name": "_from",
          "type": "address"
        },
        {
          "indexed": true,
          "internalType": "address",
          "name": "_to",
          "type": "address"
        },
        {
          "indexed": false,
          "internalType": "uint256",
          "name": "_value",
          "type": "uint256"
        }
      ],
      "name": "Transfer",
      "type": "event"
    },
    {
      "inputs": [
        {
          "internalType": "address",
          "name": "contributor",
          "type": "address"
        }
      ],
      "name": "addContrib",
      "outputs": [
        {
          "internalType": "bool",
          "name": "",
          "type": "bool"
        }
      ],
      "stateMutability": "nonpayable",
      "type": "function"
    },
    {
      "inputs": [
        {
          "internalType": "address",
          "name": "receiver",
          "type": "address"
        },
        {
          "internalType": "uint256",
          "name": "amount",
          "type": "uint256"
        }
      ],
      "name": "sendCoin",
      "outputs": [
        {
          "internalType": "bool",
          "name": "sufficient",
          "type": "bool"
        }
      ],
      "stateMutability": "nonpayable",
      "type": "function"
    },
    {
      "inputs": [
        {
          "internalType": "address",
          "name": "addr",
          "type": "address"
        }
      ],
      "name": "getBalanceInEth",
      "outputs": [
        {
          "internalType": "uint256",
          "name": "",
          "type": "uint256"
        }
      ],
      "stateMutability": "view",
      "type": "function"
    },
    {
      "inputs": [
        {
          "internalType": "address",
          "name": "addr",
          "type": "address"
        }
      ],
      "name": "getBalance",
      "outputs": [
        {
          "internalType": "uint256",
          "name": "",
          "type": "uint256"
        }
      ],
      "stateMutability": "view",
      "type": "function"
    }
  ],
  "bytecode": "0x608060405234801561001057600080fd5b5032600160006101000a81548173ffffffffffffffffffffffffffffffffffffffff021916908373ffffffffffffffffffffffffffffffffffffffff16021790555060405180602001604052803273ffffffffffffffffffffffffffffffffffffffff1673ffffffffffffffffffffffffffffffffffffffff16815250600290600161009d9291906100a3565b5061014a565b82805482825590600052602060002090810192821561011c579160200282015b8281111561011b5782518260006101000a81548173ffffffffffffffffffffffffffffffffffffffff021916908373ffffffffffffffffffffffffffffffffffffffff160217905550916020019190600101906100c3565b5b509050610129919061012d565b5090565b5b8082111561014657600081600090555060010161012e565b5090565b6107df806101596000396000f3fe608060405234801561001057600080fd5b506004361061004c5760003560e01c806322ee0ebe146100515780637bd703e81461008157806390b98a11146100b1578063f8b2cb4f146100e1575b600080fd5b61006b600480360381019061006691906104b7565b610111565b60405161007891906104ff565b60405180910390f35b61009b600480360381019061009691906104b7565b610215565b6040516100a89190610533565b60405180910390f35b6100cb60048036038101906100c6919061057a565b6102a1565b6040516100d891906104ff565b60405180910390f35b6100fb60048036038101906100f691906104b7565b61040c565b6040516101089190610533565b60405180910390f35b600080600090505b60028054905081101561020a573273ffffffffffffffffffffffffffffffffffffffff1660028281548110610151576101506105ba565b5b9060005260206000200160009054906101000a900473ffffffffffffffffffffffffffffffffffffffff1673ffffffffffffffffffffffffffffffffffffffff16036101f75760016000808573ffffffffffffffffffffffffffffffffffffffff1673ffffffffffffffffffffffffffffffffffffffff16815260200190815260200160002060008282546101e69190610618565b925050819055506001915050610210565b80806102029061066e565b915050610119565b50600090505b919050565b600073__ConvertLib____________________________6396e4ee3d61023a8461040c565b60026040518363ffffffff1660e01b815260040161025992919061070a565b602060405180830381865af4158015610276573d6000803e3d6000fd5b505050506040513d601f19601f8201168201806040525081019061029a9190610748565b9050919050565b6000816000803373ffffffffffffffffffffffffffffffffffffffff1673ffffffffffffffffffffffffffffffffffffffff1681526020019081526020016000205410156102f25760009050610406565b816000803373ffffffffffffffffffffffffffffffffffffffff1673ffffffffffffffffffffffffffffffffffffffff16815260200190815260200160002060008282546103409190610775565b92505081905550816000808573ffffffffffffffffffffffffffffffffffffffff1673ffffffffffffffffffffffffffffffffffffffff16815260200190815260200160002060008282546103959190610618565b925050819055508273ffffffffffffffffffffffffffffffffffffffff163373ffffffffffffffffffffffffffffffffffffffff167fddf252ad1be2c89b69c2b068fc378daa952ba7f163c4a11628f55a4df523b3ef846040516103f99190610533565b60405180910390a3600190505b92915050565b60008060008373ffffffffffffffffffffffffffffffffffffffff1673ffffffffffffffffffffffffffffffffffffffff168152602001908152602001600020549050919050565b600080fd5b600073ffffffffffffffffffffffffffffffffffffffff82169050919050565b600061048482610459565b9050919050565b61049481610479565b811461049f57600080fd5b50565b6000813590506104b18161048b565b92915050565b6000602082840312156104cd576104cc610454565b5b60006104db848285016104a2565b91505092915050565b60008115159050919050565b6104f9816104e4565b82525050565b600060208201905061051460008301846104f0565b92915050565b6000819050919050565b61052d8161051a565b82525050565b60006020820190506105486000830184610524565b92915050565b6105578161051a565b811461056257600080fd5b50565b6000813590506105748161054e565b92915050565b6000806040838503121561059157610590610454565b5b600061059f858286016104a2565b92505060206105b085828601610565565b9150509250929050565b7f4e487b7100000000000000000000000000000000000000000000000000000000600052603260045260246000fd5b7f4e487b7100000000000000000000000000000000000000000000000000000000600052601160045260246000fd5b60006106238261051a565b915061062e8361051a565b9250827fffffffffffffffffffffffffffffffffffffffffffffffffffffffffffffffff03821115610663576106626105e9565b5b828201905092915050565b60006106798261051a565b91507fffffffffffffffffffffffffffffffffffffffffffffffffffffffffffffffff82036106ab576106aa6105e9565b5b600182019050919050565b6106bf8161051a565b82525050565b6000819050919050565b6000819050919050565b60006106f46106ef6106ea846106c5565b6106cf565b61051a565b9050919050565b610704816106d9565b82525050565b600060408201905061071f60008301856106b6565b61072c60208301846106fb565b9392505050565b6000815190506107428161054e565b92915050565b60006020828403121561075e5761075d610454565b5b600061076c84828501610733565b91505092915050565b60006107808261051a565b915061078b8361051a565b92508282101561079e5761079d6105e9565b5b82820390509291505056fea2646970667358221220d69eab3c58cfa2150649cd5e5b3a005bb40e8ab242bd4cbb1170b59a636d8b2464736f6c634300080d0033",
  "immutableReferences": {},
  "source": "// SPDX-License-Identifier: MIT\n// Tells the Solidity compiler to compile only from v0.8.13 to v0.9.0\npragma solidity ^0.8.13;\n\nimport \"./ConvertLib.sol\";\n\n// This is just a simple example of a coin-like contract.\n// It is not ERC20 compatible and cannot be expected to talk to other\n// coin/token contracts.\n\ncontract MetaCoin {\n    mapping(address => uint256) contributors;\n    address owner;\n    address[] verrifiers;\n\n    event Transfer(address indexed _from, address indexed _to, uint256 _value);\n\n    constructor() {\n        owner = tx.origin;\n        verrifiers = [tx.origin];\n    }\n\n    function addContrib(address contributor) public returns (bool) {\n        for (uint256 i = 0; i < verrifiers.length; i++) {\n            if (verrifiers[i] == tx.origin) {\n                contributors[contributor] += 1;\n                return true;\n            }\n        }\n        return false;\n    }\n\n    function sendCoin(address receiver, uint256 amount)\n        public\n        returns (bool sufficient)\n    {\n        if (contributors[msg.sender] < amount) return false;\n        contributors[msg.sender] -= amount;\n        contributors[receiver] += amount;\n        emit Transfer(msg.sender, receiver, amount);\n        return true;\n    }\n\n    function getBalanceInEth(address addr) public view returns (uint256) {\n        return ConvertLib.convert(getBalance(addr), 2);\n    }\n\n    function getBalance(address addr) public view returns (uint256) {\n        return contributors[addr];\n    }\n}",
  "sourcePath": "/home/ankith/project/ubhacking/enigma/ubh-fall2022-repotemplate-ankithbala/enigmatic-contracts/contracts/EnigmaLib.sol",
  "compiler": {
    "name": "solc",
    "version": "0.8.13+commit.abaa5c0e.Emscripten.clang"
  },
  "schemaVersion": "3.4.10",
  "updatedAt": "2022-11-05T17:28:50.404Z",
  "devdoc": {
    "kind": "dev",
    "methods": {},
    "version": 1
  },
  "userdoc": {
    "kind": "user",
    "methods": {},
    "version": 1
  }
}